:020000000F28C7
:10000800FF0003088316A2000408A3000A08A4003E
:100018007E08A5000C2C852B58233724BD08031D0A
:100028007128B201B301F21E292872081F39031D75
:1000380029287208DF39F200720EF700770C0139AF
:10004800003003190130B200B30133083204031938
:100058003828BD01BD0A0530BE000230BF00D610E9
:1000680004300922D5005611B001B101F21E4D2805
:1000780072081F39013A031D4D287208DF39F20052
:10008800720EF700770C0139003003190130B00007
:10009800B1013108300403195D28BC0A3C083A064E
:1000A800031D5D28BC01F1107308F00071110516DD
:1000B8000515AE01AF01F11C6B287108FD39F1007F
:1000C800710C0139003003190130AE00AF012F085F
:1000D8002E0403197128051205113D0BB028B8012B
:1000E800B901D21C81285208FD39D200520C0139BD
:1000F800003003190130B800B90139083804031970
:1001080098280512BE0B93280230BD000330C000AA
:10011800C101D01001300922CF0050119828D61003
:1001280004300922D5005611B601B701D61CA628FD
:100138005608FD39D600560C013900300319013034
:10014800B600B701370836040319B0280516D210CF
:1001580002300922D10052113D08023A031D182924
:10016800B401B501F21EC82872081F39031DC8283A
:100178007208DF39F200720EF700770C013900308F
:1001880003190130B400B501350834040319D22825
:10019800D01001300922CF005011C10AA601A701D1
:1001A800D01CE0285008FD39D000500C013900302F
:1001B80003190130A600A7012708260403190629F8
:1001C800C0034008423E8400410883138000C008F1
:1001D800031DFA280330BD004408BE000330C000E8
:1001E800D61004300922D50056110629C10105167A
:1001F800D21002300922D1005211D0100130092248
:10020800CF005011A401A501D21C14295208FD39B0
:10021800D200520C0139003003190130A400A501A5
:1002280025082404031D05123D08033A031D12285E
:10023800A201A301D21C2A295208FD39D200520C6E
:100248000139003003190130A200A3012308220458
:10025800031D4029AC01AD01D41C3C295408FD39CB
:10026800D400540C0139003003190130AC00AD0141
:100278002D082C0403197D2905124008413E8400ED
:1002880083130008003A031DBE03BE08031D782926
:10029800C00B7229BF036430F60044085924F700E4
:1002A8000A30F6008312430859247707831242075D
:1002B800A1003F08053E0922EC238312BF08031D55
:1002C8006729BD017D290230BD000330C000C1018E
:1002D800D01001300922CF0050117D294008413E3D
:1002E80084000008BE006C29D61004300922D5000D
:1002F8005611AA01AB01D61C8B295608FD39D60028
:10030800560C0139003003190130AA00AB012B0843
:100318002A04031DA129A801A901D01C9D29500860
:10032800FD39D000500C0139003003190130A80004
:10033800A901290828040319122805164008413E76
:10034800840083138008031DAF29D41003300922C9
:10035800D30054111228D21002300922D1005211B0
:02036800122859
:10040000FE00FE1F082A83137E18831700080800C9
:100410000408FE0002308A007E088207003414348B
:100420000434013405340034013462342D34203472
:10043000503455344C3453344F34203452344534D2
:1004400047345234453453344934763441342034BB
:100450004F3420347434523441344E3453344334A2
:10046000553452345234493444344F3400344134D6
:100470002D34203445344E34743452344134643491
:100480004134203464345534523441344E3474345D
:100490004534203445344C342034503452344F34B5
:1004A0004334453453344F34003434342D34203401
:1004B000503441345534533441342034503455345D
:1004C0004C3453344F342034533441344C34493455
:1004D0006434413420344F344634463400343334A9
:1004E0002D34203450344134553453344134203485
:1004F000503455344C3453344F3420345334413415
:100500004C3449346434413420344F344E34003454
:1005100035342D3420345234453449344E34493442
:100520004334493441342034503455344C345334FA
:100530004F34003432342D342034433441344E347B
:10054000433445344C3441342034503455344C34E5
:1005500053344F34003432342D3420347434523414
:1005600041344E3453344334553452345234493484
:1005700064344F34003436342D34203453345534FD
:100580004D3441342034503455344C3453344F348A
:10059000003431342D34203452344534473452340D
:1005A000453453344934763441340034533445347B
:1005B000473455344E3444344F34533400344D347E
:1005C00049344E34553474344F3453340034313458
:1005D0002D3420344E3441346434413400344834B2
:1005E0004F3452344134533400348316A100031085
:1005F000210D713E8400001908000310210D703E8A
:1006000084000008003A031908000310210D703E11
:10061000840080030310210D703E84008008031DB8
:1006200008000310210D713E840080140310210D79
:10063000713E8400001C08002108733E84000008FD
:10064000A0000310210D703E8400200880000800E7
:10065000A0000310200D503E8400831300190800F1
:100660000310200D4F3E84000008003A03190800D3
:100670000310200D4F3E840080030310200D4F3ED9
:1006800084008008031D08000310200D503E8400E4
:1006900080140310200D503E8400001C080003103D
:1006A000200D4F3E84002008013E092280000800F2
:1006B00083160F168F160F17831219149914191514
:1006C000901010159011101690161014DC308E003A
:1006D0000B308F00831681118112011481140115D2
:1006E000F8308312810083161F109F101F119F1175
:1006F00081130511051283120511051283160C14BE
:1007000083128B160B178B170800F001F101F20111
:10071000F301CF01D001D101D201D301D401D50120
:10072000D601BB30F8009D30F9000330C500C6018A
:10073000C700C801D930C9008C30CA006130CB0075
:100740004730CC007A30CD00AD30CE008301102888
:1007500048080319AD2BC803080000308519013083
:100760008316A0008312470883162006FE39200650
:100770008312C700471CC71CC42B6430C800720812
:10078000E0390138F200F2168312471CC92BC71456
:100790000800C710080046080319D02BC60308003C
:1007A0000030851A01308316A00083124508831695
:1007B0002006FE3920068312C500451CC51CE52B0A
:1007C0006430C600E030F205F2168312451CEA2BB5
:1007D000C5140800C5100800A00083169C18ED2B56
:1007E0008312200883169B008312210883169A0027
:1007F0003F309C05031083128B1B03148B1383164D
:100800001C1555309D00AA309D009C141C11031C22
:10081000080083128B17080083120C1C122C0C1872
:10082000482483128B1A0B1D162C67248316250867
:10083000FE0024088A002308840022088300FF0E9B
:100840007F0E0900A00083169C18232C8312200819
:1008500083169B003F309C051C1403101C180314C6
:10086000003003180130F400F5011A080800BD013A
:10087000BC01003022248312BA00013022248312EA
:10088000BB00F6000310F60D0310760DF300080010
:10089000DC308E000B308F000030F5220130282331
:1008A00002302823033028230030282383120C1021
:1008B0000800F500F40176087518F4070310F60D2A
:1008C0000310F50CF508031D5B2C74080800F830C4
:0A08D0008100CB23A8230B110800C0
:08400000200011000200220063
:02400E00043F6D
:1042000003000500000000000000000000000000A6
:104210000000000000000000000000000000050099
:10422000000000000000000000000000000000008E
:00000001FF
