:020000000F28C7
:10000800FF0003088316AA000408AB000A08AC0026
:100018007E08AD00D72A3A2B2122B321CC08031D34
:100028007128B801B901F91E292879081F39031D5B
:1000380029287908DF39F900790EAA002A0C013934
:10004800003003190130B800B90139083804031920
:100058003A28CC01CC0A051105120530CD00033031
:10006800CE00C51004300923C4004511BA01BB01F4
:10007800F91E4F2879081F39013A031D4F287908BE
:10008800DF39F900790EAA002A0C0139003003196A
:100098000130BA00BB013B083A0403195D28F81087
:1000A8004608F5004708F6004808F70078110516D5
:1000B8000515BC01BD01F81C6B287808FD39F8004E
:1000C800780C0139003003190130BC00BD013D082E
:1000D8003C0403197128051205114C0BB328B6010D
:1000E800B701C11C81284108FD39C100410C013903
:1000F800003003190130B600B70137083604031978
:100108009B280512CD0B9628CE08031D8D28CC01FF
:100118009B280230CC00CF01BF1001300923BE005C
:100128003F119B28C51004300923C4004511B001B4
:10013800B101C51CA9284508FD39C500450C013980
:10014800003003190130B000B1013108300403193F
:10015800B3280516C11002300923C00041114C080C
:10016800023A031DEE28851ABB280516BC2805127D
:10017800B201B301F91ED02879081F39031DD02810
:100188007908DF39F900790EAA002A0C0139003004
:1001980003190130B200B301330832040319DA2815
:1001A800BF1001300923BE003F11CF0AB401B501C9
:1001B800BF1CE8283F08FD39BF003F0C013900305B
:1001C80003190130B400B501350834040319EE28C9
:1001D8000330CC004C08033A031D1228CC01CC0A8A
:1001E8000530CD00C51004300923C4004511CE03E5
:1001F8004F08F1004E08053E092388228312CE08D5
:10020800031D1228003016238312CB000130162359
:100218008312CA00023016238312C9004B08A000BB
:10022800A1014030A2003830A300BE224908AA002C
:10023800AB010310AA0DAB0D0310AA0DAB0D831370
:1002480020082A07AC0021080318210A2B07AD0053
:100258004A08A000A101F030A200A301BE22200894
:100268002C07AE0021080318210A2D07AF002E081D
:10027800C6002F08C7000030AF1BFF30C800122887
:100288008316A900AB21001908002908A40003104F
:100298009D21803AA80080302802031D592900308A
:1002A8002602031D592901302502031C08002908CC
:1002B800A4000310A40D0310240D753E8400FF3024
:1002C8008007840A0318013E031D8007840AFF3053
:1002D8000318013E80072908A40003109D21260465
:1002E8002504031D08002908AB2180142908AB2127
:1002F800001C0800290829072907463E84008313A3
:100308000008A400840A0008A500840A0008A600C2
:100318002908A7000310A70D0310270D753E8400B8
:1003280024088000840A25088000840A26088000A2
:100338000800A40D0310240D753E84000008A500D4
:10034800840A0008A600840A0008A7000800A40080
:100358000310A40D0310240D783E84000800CC017E
:10036800003016238312CB00013016238312CA00F3
:10037800023016238312C9004A08A000A101F030F8
:10038800A200A301BE224908A400A5010310A40DE0
:10039800A50D0310A40DA50D20082407A60021080B
:1003A8000318210A2507A7004B08A000A101403027
:1003B800A2003830A300BE2220082607A800210882
:1003C8000318210A2707A9002808C6002908C7001A
:1003D8000030A91BFF30C8000800F3000310730D9C
:1003E8003F3E84008313001908000310730D3E3E3E
:1003F80084000008003A031908000310730D3E3EFC
:10040800840080030310730D3E3E84008008031DA2
:1004180008000310730D3F3E840080140310730D11
:100428003F3E8400001C08000310730D3E3E84000C
:100438007308013E09238000080083160F168F16E3
:100448000F1783121914991419159010101590117B
:10045800101690161014DC308E000B308F008316A7
:1004680081118112011481140115F8308312810061
:1004780083161F109F101F119F118113051105125C
:1004880083120511051283160C1483128B160B1791
:100498008B17080053080319532AD30308000030A8
:1004A80085190130F3005206FE397306D200521C3A
:1004B800D21C652A6430D3007908E0390138F90084
:1004C800F9168312521C6A2AD2140800D2100800A6
:1004D80051080319712AD10308000030851A013028
:1004E800F3005006FE397306D000501CD01C812A38
:1004F8006430D100E030F905F9168312501C862AC1
:10050800D0140800D0100800F00083169C18892A1F
:1005180070089B0071089A003F309C0503108312F5
:100528008B1B03148B1383161C1555309D00AA30A2
:100538009D009C141C11031C080083128B170800D3
:10054800F301F4018316201CAF2A2208F3070318CD
:10055800F40A2308F4070310A20DA30D0310A10C3D
:10056800A00C21082004031DA62A7408A100730802
:10057800A0000800F001F101201CC82A2208F00799
:100588000318F10A2308F1070310A20DA30D0310A5
:10059800A10CA00C21082004031DC02A7108A10089
:1005A8007008A000080083120C1CDD2A0C182923EF
:1005B80083128B1A0B1DE12A522383162D08FE0085
:1005C8002C088A002B0884002A088300FF0E7F0E5F
:0205D800090018
:10060000FE00FE1F082B83137E18831700080800C6
:100610000408FE0003308A007E0882070034143488
:10062000013401340134023401340034F200831601
:100630009C18172B72089B003F309C051C1403105C
:100640001C180314003003180130F000F1011A08DF
:100650000800DC308E000B308F0000304421013068
:10066000F1210230F1210330F1210030F121831218
:100670000C100800753084007A304A2383133E3012
:10068000840049304A230330D000D101D200D30185
:100690008301102864008001840A040603190034D1
:1006A00004064B2BF83081006C224E220B110800FF
:08400000200011000200220063
:02400E00043F6D
:1042000000000000050000000000000000000000A9
:104210000000000000000000000000000000050099
:10422000000000000000000000000000000000008E
:00000001FF
