:020000000F28C7
:10000800FF0003088316AA000408AB000A08AC0026
:100018007E08AD00112B292C3D22CF21CE08031DCF
:100028008D28BA01BB01F91E292879081F39031D3B
:1000380029287908DF39F900790EAA002A0C013934
:10004800003003190130BA00BB013B083A04031918
:100058003A28CE01CE0A051105120530CF0003302B
:10006800D000C71004300924C6004711B801B901EF
:10007800F91E4F2879081F39013A031D4F287908BE
:10008800DF39F900790EAA002A0C0139003003196A
:100098000130B800B9013908380403195828F501A6
:1000A800F601F70105160515BE01BF01F91E6D28F9
:1000B80079081F39023A031D6D287908DF39F900DC
:1000C800790EAA002A0C0139003003190130BE004C
:1000D800BF013F083E0403197928F8104808F500C5
:1000E8004908F6004A08F7007811BC01BD01F81C60
:1000F80087287808FD39F800780C01390030031991
:100108000130BC00BD013D083C0403198D280512CF
:1001180005114E0BCF28B201B301C31C9D2843081B
:10012800FD39C300430C0139003003190130B20016
:10013800B301330832040319B7280512CF0BB228CC
:10014800D008031DA928CE01B7280230CE00D1015E
:10015800C11001300924C0004111B728C71004306C
:100168000924C6004711B001B101C71CC5284708BA
:10017800FD39C700470C0139003003190130B000C0
:10018800B101310830040319CF280516C310023015
:100198000924C20043114E08023A031D0A29851A90
:1001A800D7280516D8280512B601B701F91EEC287C
:1001B80079081F39031DEC287908DF39F900790E11
:1001C800AA002A0C0139003003190130B600B70122
:1001D800370836040319F628C11001300924C00075
:1001E8004111D10AB401B501C11C04294108FD39E6
:1001F800C100410C0139003003190130B400B501C8
:100208003508340403190A290330CE004E08033A8E
:10021800031D1228CE01CE0A0530CF00C7100430C6
:100228000924C6004711D0035108F1005008053EC3
:100238000924C2228312D008031D12280030162474
:100248008312CD00013016248312CC00023016240C
:100258008312CB004D08A000A1014030A200383025
:10026800A300F8224B08AA00AB010310AA0DAB0D9E
:100278000310AA0DAB0D831320082A07AC00210830
:100288000318210A2B07AD004C08A000A101F0308B
:10029800A200A301F82220082C07AE0021080318A9
:1002A800210A2D07AF002E08C8002F08C90000300A
:1002B800AF1BFF30CA0012288316A900C7210019F6
:1002C80008002908A4000310B921803AA80080304A
:1002D8002802031D752900302602031D75290130E7
:1002E8002502031C08002908A4000310A40D03100C
:1002F800240D753E8400FF308007840A0318013EF0
:10030800031D8007840AFF300318013E800729086F
:10031800A4000310B92126042504031D0800290898
:10032800C72180142908C721001C080029082907AB
:100338002907483E840083130008A400840A0008A3
:10034800A500840A0008A6002908A7000310A70D25
:100358000310270D753E840024088000840A2508B0
:100368008000840A260880000800A40D0310240DCC
:10037800753E84000008A500840A0008A600840AC7
:100388000008A7000800A4000310A40D0310240D02
:10039800783E84000800CE01003016248312CD0078
:1003A800013016248312CC00023016248312CB00AD
:1003B8004C08A000A101F030A200A301F8224B08CC
:1003C800A400A5010310A40DA50D0310A40DA50DEF
:1003D80020082407A60021080318210A2507A700DA
:1003E8004D08A000A1014030A2003830A300F82237
:1003F80020082607A80021080318210A2707A900B2
:100408002808C8002908C9000030A91BFF30CA0005
:100418000800F3000310730D413E84008313001994
:1004280008000310730D403E84000008003A0319C9
:1004380008000310730D403E840080030310730D01
:10044800403E84008008031D08000310730D413EE0
:10045800840080140310730D413E8400001C0800C2
:100468000310730D403E84007308013E0924800088
:10047800080083160F168F160F1783121914991474
:100488001915901010159011101690161014DC30D4
:100498008E000B308F008316811181120114811494
:1004A8000115F8308312810083161F109F101F1149
:1004B8009F11811305110512831205110512831668
:1004C8000C1483128B160B178B1708005508031989
:1004D8006F2AD5030800003085190130F30054064F
:1004E800FE397306D400541CD41C812A6430D5000C
:1004F8007908E0390138F900F9168312541C862A64
:10050800D4140800D4100800570803198D2AD703FB
:100518000800003085190130F3005606FE397306CD
:10052800D6005618D6189F2A6430D7007908E039C3
:100538000238F900F9168312561CA42AD6140800AA
:10054800D610080053080319AB2AD303080000305B
:10055800851A0130F3005206FE397306D200521C88
:10056800D21CBB2A6430D300E030F905F916831297
:10057800521CC02AD2140800D2100800F0008316BA
:100588009C18C32A70089B0071089A003F309C058C
:10059800031083128B1B03148B1383161C15553001
:1005A8009D00AA309D009C141C11031C0800831296
:1005B8008B170800F301F4018316201CE92A22088E
:1005C800F3070318F40A2308F4070310A20DA30D78
:1005D8000310A10CA00C21082004031DE02A7408B4
:1005E800A1007308A0000800F001F101201C022BF3
:1005F8002208F0070318F10A2308F1070310A20DD7
:10060800A30D0310A10CA00C21082004031DFA2A35
:100618007108A1007008A000080083120C1C172B99
:100628000C183B2483128B1A0B1D1B2B5424831686
:100638002D08FE002C088A002B0884002A08830055
:06064800FF0E7F0E090009
:10080000FE00FE1F082C83137E18831700080800C3
:100810000408FE0004308A007E0882070034143485
:10082000013401340134023401340034F2008316FF
:100830009C18172C72089B003F309C051C14031059
:100840001C180314003003180130F000F1011A08DD
:100850000800753084007A304C24831340308400C3
:100860004B304C240330D200D301D400D501D60044
:10087000D70183011028DC308E000B308F00003050
:10088000602101300D2202300D2203300D22003094
:100890000D2283120C10080064008001840A0406F3
:1008A0000319003404064D2CF8308100A6226A2278
:0608B00088220B11080074
:08400000200011000200220063
:02400E00043F6D
:1042000000000000050000000000000000000000A9
:104210000000000000000000000000000000050099
:10422000000000000000000000000000000000008E
:00000001FF
