:020000000F28C7
:10000800FF0003088316AC000408AD000A08AE0020
:100018007E08AF004D2B892BDA017B22E321DA0819
:10002800031DDF28B601B701F91E2A2879081F39F0
:10003800031D2A287908DF39F900790EF300730CBB
:100048000139003003190130B600B701370836040A
:1000580003193E2805120511C601C701C801DA01B6
:10006800DA0A0530DB000630DC00C3100A30092349
:10007800C200431150084F044E04031D77284C0852
:100088004B044A040319CD185D2885195A28CD1048
:1000980003304E3E840083130008CA00840A000817
:1000A800CB00840A0008CC004D11DF280512051189
:1000B800DF28B401B501CD1C6B284D08FD39CD00F2
:1000C8004D0C0139003003190130B400B501350871
:1000D80034040319712805160515851DDF28CA0182
:1000E800CB01CC01DF28530852045104031DA0287A
:1000F8004808470446040319C9188D288519DF28BC
:10010800C9104E08C6004F08C7005008C80049115A
:10011800DF28BA01BB01C91C9B284908FD39C90061
:10012800490C0139003003190130BA00BB013B0802
:100138003A040319DF28DD28B801B901C91CAE2823
:100148004908FD39C900490C01390030031901304B
:10015800B800B901390838040319B4280512051183
:100168004C084B044A040319CD18C328480847040F
:1001780046040319C918C328851D4B28DF28B20176
:10018800B301CD1CD1284D08FD39CD004D0C0139E6
:10019800003003190130B200B301330832040319E7
:1001A800DF28C9104E08C6004F08C7005008C8000D
:1001B8004911051605155A0B2129AC01AD01BF1CC3
:1001C800EF283F08FD39BF003F0C01390030031903
:1001D8000130AC00AD012D082C04031909290512C2
:1001E800DB0B0429DC08031DFB28DA01092902308E
:1001F800DA00DE01BD1007300923BC003D110929D2
:10020800C3100A300923C2004311AA01AB01C31C61
:1002180017294308FD39C300430C0139003003197D
:100228000130AA00AB012B082A040319212905165D
:10023800BF1008300923BE003F115A08023A031DB7
:100248005C29851A292905162A290512B001B10148
:10025800F91E3E2979081F39031D3E297908DF391F
:10026800F900790EF300730C0139003003190130DD
:10027800B000B1013108300403194829BD10073016
:100288000923BC003D11DE0AAE01AF01BD1C562991
:100298003D08FD39BD003D0C01390030031901301E
:1002A800AE00AF012F082E0403195C290330DA00D1
:1002B8005A08033A031D1328DA01DA0A0530DB006D
:1002C800C3100A300923C2004311DC035E08F100A1
:1002D8005C08013E0923C7228312DC08031912288F
:1002E80013288316AB00DB21001908002B08A60091
:1002F8000310CD21803AAA0080302A02031D8A29E2
:1003080000302802031D8A2901302702031C080037
:100318002B08A6000310A60D0310260D463E8400E8
:10032800FF308007840A0318013E031D8007840AF2
:10033800FF300318013E80072B08A6000310CD21CB
:1003480028042704031D08002B08DB2180142B0830
:10035800DB21001C08002B082B072B074E3E8400CE
:100368000008A600840A0008A700840A0008A8005C
:100378002B08A9000310A90D0310290D463E84007F
:1003880026088000840A27088000840A280880003C
:100398000800A60D0310260D463E84000008A7009D
:1003A800840A0008A800840A0008A9000800A6001A
:1003B8000310A60D0310260D493E840008000030E6
:1003C80063238312D600013063238312D5000230E1
:1003D80063238312D4005508A000A101F030A200C5
:1003E800A30134235408312283133A2256084322A6
:1003F80034232722CE002908CF000030A91BFF3064
:10040800D000033063238312D9000430632383129E
:10041800D800053063238312D7005808A000A10133
:10042800F030A200A3013423570831223A22590898
:10043800432234232722D1002908D2000030A91BE7
:10044800FF30D300080020082607A8002108031859
:10045800210A2707A90028080800A400A5010310FD
:10046800A40DA50D0310A40DA50D08002008240750
:10047800A60021080318210A2507A7000800A000E4
:10048800A1014030A2003830A30008008316A00064
:100498000310200D3D3E840083130019080003104B
:1004A800200D3C3E84000008003A031908000310A0
:1004B800200D3C3E840080030310200D3C3E840048
:1004C8008008031D08000310200D3D3E84008014A1
:1004D8000310200D3D3E8400001C08000310200D71
:1004E8003C3E84002008073E09238000080083164C
:1004F8000F168F160F1783121914991419159010C7
:1005080010159011101690161014DC308E000B3058
:100518008F00831681118112011481140115F8309E
:100528008312810083161F109F101F119F118113C2
:100538000511051283120511051283160C14831276
:100548008B160B178B17080078080319AD2AF803C8
:10055800080000308312851901308316A000770641
:10056800FE392006F700771CF71CC12A6430F80012
:100578007908E0390138F900F916771CC52AF7140B
:100588000800F7100800F00083169C18C82A7008A5
:100598009B0071089A003F309C05031083128B1B47
:1005A80003148B1383161C1555309D00AA309D002B
:1005B8009C141C11031C080083128B170800760872
:1005C8000319E82AF60308000030851A0130F40000
:1005D8007506FE397406F500751CF51CF82A64309A
:1005E800F600E030F905F916751CFC2AF514080028
:0405F800F5100800F2
:10060000FE00FE1F082B83137E18831700080800C6
:100610000408FE0003308A007E0882070034053497
:10062000043403340234013400341434013401340A
:10063000013400348316A001A101221C252B2408BB
:10064000A0070318A10A2508A1070310A40DA50DF2
:100650000310A30CA20C23082204031D1D2B210848
:10066000A3002008A2000800F001F101201C3E2B8D
:100670002208F0070318F10A2308F1070310A20D5E
:10068000A30D0310A10CA00C21082004031D362B80
:100690007108A1007008A000080083120C1C532BE5
:1006A0000C18762383128B1A0B1D572B9E2383164F
:1006B0002F08FE002E088A002D0884002C088300D5
:1006C000FF0E7F0E0900F20083169C18642B72083F
:1006D0009B003F309C051C1403101C1803140030B1
:1006E00003180130F000F1011A080800DC308E0018
:1006F0000B308F0001304A2202304A2203304A2256
:1007000000304A22003075210130752183120C100F
:100710000800F90183133C308400543096230330E1
:10072000F500F601F700F80183011028640080014C
:10073000840A0406031900340406972BF83081005C
:0A074000E322A82283120B11080027
:08400000200011000200220063
:02400E00043F6D
:1042000000000000050000000000010000000000A8
:104210000000000000000000000000000000050099
:10422000000000000000000000000000000000008E
:00000001FF
