:020000000F28C7
:10000800FF0003088316AA000408AB000A08AC0026
:100018007E08AD004D2C892CA0220C22CB10500854
:10002800C8005108C9005208CA004B110516051529
:10003800DC08031D8528B801B901F91E33287908A1
:100048001F39031D33287908DF39F900790EAA0012
:100058002A0C0139003003190130B800B9013908F8
:1000680038040319472805120511C801C901CA0136
:10007800DC01DC0A0530DD000630DE00C5100A3080
:100088000924C4004511BA01BB01CB1C55284B08F3
:10009800FD39CB004B0C0139003003190130BA008F
:1000A800BB013B083A0403196928CF100330503EBE
:1000B800840083130008CC00840A0008CD00840A59
:1000C8000008CE004F1105120511BC01BD01CF1C5F
:1000D80077284F08FD39CF004F0C0139003003193C
:1000E8000130BC00BD013D083C0403198528CB1034
:1000F8005008C8005108C9005208CA004B1105161B
:1001080005155C0BD128B601B701C11C952841081B
:10011800FD39C100410C0139003003190130B60026
:10012800B701370836040319B9280512DD0BB428BE
:10013800DE08031DAB28DC01CB105008C8005108AD
:10014800C9005208CA004B1105160515B928023016
:10015800DC00E001BF1007300924BE003F11B928B8
:10016800C5100A300924C4004511B001B101C51CED
:10017800C7284508FD39C500450C01390030031969
:100188000130B000B101310830040319D128051637
:10019800C11008300924C00041115C08023A031D4F
:1001A8000C29851AD9280516DA280512B201B301D7
:1001B800F91EEE2879081F39031DEE287908DF3962
:1001C800F900790EAA002A0C013900300319013010
:1001D800B200B301330832040319F828BF100730FE
:1001E8000924BE003F11E00AB401B501BF1C06296D
:1001F8003F08FD39BF003F0C0139003003190130B9
:10020800B400B5013508340403190C290330DC00A7
:100218005C08033A031D1C28DC01DC0A0530DD00FC
:10022800C5100A300924C4004511DE036008F10036
:100238005E08013E0924EB228312DE08031D1C28F8
:10024800003063248312D800013063248312D7005E
:10025800023063248312D6005808A000A101403060
:10026800A2003830A30034245608AA00AB010310BA
:10027800AA0DAB0D0310AA0DAB0D831320082A0796
:10028800AC0021080318210A2B07AD005708A0006D
:10029800A101F030A200A301342420082C07AE00ED
:1002A80021080318210A2D07AF002E08D0002F08B7
:1002B800D1000030AF1BFF30D2000330632483121B
:1002C800DB00043063248312DA00053063248312D0
:1002D800D9005B08A000A1014030A2003830A3007B
:1002E80034245908AA00AB010310AA0DAB0D031062
:1002F800AA0DAB0D20082A07AC0021080318210A13
:100308002B07AD005A08A000A101F030A200A301FC
:10031800342420082C07AE0021080318210A2D07D1
:10032800AF002E08D3002F08D4000030AF1BFF30D9
:10033800D5001C288316A9000422001908002908E2
:10034800A4000310F621803AA80080302802031D7B
:10035800B32900302602031DB32901302502031CEE
:1003680008002908A4000310A40D0310240D483E1A
:100378008400FF308007840A0318013E031D8007AC
:10038800840AFF300318013E80072908A4000310DF
:10039800F62126042504031D0800290804228014D8
:1003A80029080422001C0800290829072907503EAB
:1003B80084000008A400840A0008A500840A000834
:1003C800A6002908A7000310A70D0310270D483E13
:1003D800840024088000840A25088000840A2608EE
:1003E80080000800A40D0310240D483E8400000876
:1003F800A500840A0008A600840A0008A7000800CF
:10040800A4000310A40D0310240D4B3E8400080023
:10041800DC01003063248312D80001306324831286
:10042800D700023063248312D6005708A000A10128
:10043800F030A200A301342456084E22580869223D
:1004480034245F22D0002908D1000030A91BFF30D6
:10045800D200033063248312DB0004306324831248
:10046800DA00053063248312D9005A08A000A101DC
:10047800F030A200A301342459084E225B086922F7
:1004880034245F22D3002908D4000030A91BFF3090
:10049800D5000800A400A5010310A40DA50D0310A4
:1004A800A40DA50D20082407A60021080318210A79
:1004B8002507A700080020082607A8002108031818
:1004C800210A2707A90028080800A000A101403038
:1004D800A2003830A3000800F3000310730D3F3E5C
:1004E80084008313001908000310730D3E3E840036
:1004F8000008003A031908000310730D3E3E8400FB
:1005080080030310730D3E3E84008008031D08001D
:100518000310730D3F3E840080140310730D3F3E9B
:100528008400001C08000310730D3E3E840073080D
:10053800073E09248000080083160F168F160F1730
:10054800831219149914191590101015901110167A
:1005580090161014DC308E000B308F00831681113A
:100568008112011481140115F83083128100831659
:100578001F109F101F119F1181130511051283125F
:100588000511051283160C1483128B160B178B1783
:10059800080078080319D22AF803080000308312EB
:1005A80085190130F3007706FE397306F700771CCA
:1005B800F71CE52A6430F8007908E0390138F900B9
:1005C800F916771CE92AF7140800F7100800F0005C
:1005D80083169C18EC2A70089B0071089A003F301B
:1005E8009C05031083128B1B03148B1383161C1595
:1005F80055309D00AA309D009C141C11031C080056
:1006080083128B170800760803190C2BF6030800D1
:100618000030851A0130F3007506FE397306F500BF
:10062800751CF51C1C2B6430F600E030F905F91632
:0C063800751C202BF5140800F5100800BC
:10080000FE00FE1F082C83137E18831700080800C3
:100810000408FE0004308A007E0882070034053494
:100820000434033402340134003414340134013408
:1008300001340034F301F4018316201C252C220816
:10084000F3070318F40A2308F4070310A20DA30DFD
:100850000310A10CA00C21082004031D1C2C7408FB
:10086000A1007308A0000800F001F101201C3E2C3B
:100870002208F0070318F10A2308F1070310A20D5C
:10088000A30D0310A10CA00C21082004031D362C7D
:100890007108A1007008A000080083120C1C532CE2
:1008A0000C18762483128B1A0B1D572C9E2483164A
:1008B0002D08FE002C088A002B0884002A088300DB
:1008C000FF0E7F0E0900F20083169C18642C72083C
:1008D0009B003F309C051C1403101C1803140030AF
:1008E00003180130F000F1011A080800DC308E0016
:1008F0000B308F00013070220230702203307022E2
:100900000030702200309E2101309E2183120C1095
:100910000800F90183133E308400563096240330DA
:10092000F500F601F700F80183011028640080014A
:10093000840A0406031900340406972CF830810059
:0A0940000723CD2283120B110800DB
:08400000200011000200220063
:02400E00043F6D
:1042000000000000050000000000010000000000A8
:104210000000000000000000000000000000050099
:10422000000000000000000000000000000000008E
:00000001FF
